:100000000C9435000C945D000C945D000C945D0024
:100010000C945D000C945D000C945D000C945D00EC
:100020000C945D000C945D000C945D000C945D00DC
:100030000C945D000C945D000C945D000C945D00CC
:100040000C9477030C945D000C945D000C945D009F
:100050000C945D000C945D000C945D000C945D00AC
:100060000C945D000C945D00520211241FBECFEF72
:10007000D4E0DEBFCDBF12E0A0E0B1E0ECE6F8E0F6
:1000800002C005900D92A433B107D9F712E0A4E3A2
:10009000B2E001C01D92A736B107E1F710E0CAE651
:1000A000D0E004C02297FE010E943004C836D10778
:1000B000C9F70E9470030C9434040C9400000F9351
:1000C0001F93CF93DF93689F8001699F100D789FE6
:1000D000100D1124C8010E947B00EC01009729F04B
:1000E00060E070E0A8010E947D01CE01DF91CF9118
:1000F0001F910F910895CF93DF93BC01823091053A
:1001000010F462E070E0A0916502B0916602ED012A
:10011000E0E0F0E040E050E021C08881998186175E
:10012000970769F48A819B81309719F093838283C2
:1001300004C09093660280936502FE0134C0681784
:10014000790738F44115510519F08417950708F41B
:10015000AC01FE018A819B819C01E9012097E9F6AF
:1001600041155105A9F1CA01861B970B049708F4A4
:10017000BA01E0E0F0E02AC08D919C9111978417BC
:100180009507F9F46417750781F412968D919C9187
:100190001397309719F09383828304C0909366027B
:1001A00080936502FD0132964CC0CA01861B970BF5
:1001B000FD01E80FF91F6193719302978D939C9352
:1001C00040C0FD01828193819C01D9011097A1F665
:1001D0008091630290916402892B41F48091020125
:1001E0009091030190936402809363024091040113
:1001F000509105014115510541F44DB75EB780910D
:10020000000190910101481B590B2091630230912C
:100210006402CA01821B930B8617970780F0AB011B
:100220004E5F5F4F8417950750F0420F531F509356
:10023000640240936302F9016193719302C0E0E0AC
:10024000F0E0CF01DF91CF910895CF93DF93009736
:1002500009F450C0EC0122971B821A82A09165021A
:10026000B0916602109709F140E050E0AC17BD076D
:1002700008F1BB83AA83FE0121913191E20FF31FA4
:10028000AE17BF0779F48D919C911197280F391FF4
:100290002E5F3F4F3983288312968D919C9113973F
:1002A0009B838A834115510571F4D0936602C093F4
:1002B000650220C012968D919C911397AD01009715
:1002C00011F0DC01D3CFFA01D383C28321913191A4
:1002D000E20FF31FCE17DF0769F488819981280F99
:1002E000391F2E5F3F4FFA01318320838A819B8122
:1002F00093838283DF91CF910895DC0101C06D93D8
:1003000041505040E0F708951BB88FEF8AB984B18F
:100310008E6284B980E58CBD1EBC0DB407FEFDCF96
:100320001EBC0DB407FEFDCF1EBC0DB407FEFDCFF5
:100330001EBC0DB407FEFDCF299A29980895CF93CE
:10034000DF93EC0140E050E0B0EA34C0E881F9818D
:1003500020E0222311F4BBB909C0203110F42BB9DD
:1003600005C0822F8F508295807F8BB980E090E00E
:100370000000019682339105D9F7A08131819281E5
:1003800083818EBD0DB407FEFDCF9EBD0DB407FE6B
:10039000FDCF3EBD0DB407FEFDCF1BB8AEBD0DB405
:1003A00007FEFDCF299A29982F5F3496293189F6C7
:1003B0004F5F5F4F4617570749F6DF91CF9108957A
:1003C000FC0170E0660F771F660F771F0190F081C8
:1003D000E02DE60FF71F2083318342835383089576
:1003E0000F931F938C0189E190E064E070E00E941C
:1003F0005F00F801808391831F910F910895FC01A4
:10040000458356836783708708950F931F938C01EC
:10041000FC0145835683678370870E94BF03F80100
:1004200061837283838394831F910F910895EF9268
:10043000FF920F931F93CF93DF93EC010E94BF03B2
:10044000E980FA800B811C812D813E814F81588586
:100450006E197F09800B910B62177307840795074C
:1004600010F480E018C0211531054105510519F03F
:100470008881882339F00E94BF0369837A838B8344
:100480009C8308C02E0D3F1D401F511F29833A83B6
:100490004B835C8381E0DF91CF911F910F91FF909F
:1004A000EF90089588E392E044E650E060E070E069
:1004B0000E94050281E492E040E157E260E070E0D2
:1004C0000E9405028AE492E00E94F0018EE492E02C
:1004D0000E94F00182E592E00E94F00186E592E040
:1004E0000E94F0010895CF93DF93EC0188E392E03E
:1004F0000E941702813061F48091320290913302A0
:100500000196BE010E940704909333028093320249
:10051000DF91CF91089588E392E048EE53E060E0E8
:1005200070E00E94FF0180913202909133020197A6
:1005300019F482E592E002C086E592E061E070E0A5
:100540000E949F0182E090E00E94730208951F9331
:1005500088E392E044E650E060E070E00E94FF0132
:100560008EE492E061E070E00E949F0182E390E0FF
:100570000E947302109235021092340212E337C0C7
:100580008091320290913302FB01EE0FFF1FEE0FBC
:10059000FF1F8A3191058CF0E253FE4F212F281B5B
:1005A000822F208131814281538104C05695479525
:1005B000379527958A95D2F70DC0E253FE4F2081DB
:1005C00031814281538104C0220F331F441F551FC4
:1005D0008A95D2F78EE492E00E94E0018091340285
:1005E0009091350201969093350280933402609188
:1005F000340270913502693171050CF4C1CF1F913D
:10060000089581E492E00E941702813069F480919C
:10061000360290913702019662E070E00E94070472
:100620009093370280933602809136029091370280
:10063000019719F40E94A70208950E948B02089561
:100640008AE492E00E9484011092350210923402F2
:100650003EC0FB01EE0FFF1FEE0FFF1FEA5FFE4FD4
:10066000208131814281538182E592E00E94E00144
:100670006091340270913502FB01EE0FFF1FEE0F07
:10068000FF1FE659FE4F208131814281538186E56B
:1006900092E00E94E0016091340270913502FB010A
:1006A000EE0FFF1FEE0FFF1FE253FE4F208131813F
:1006B000428153818EE492E00E94E00180913402F5
:1006C00090913502019690933502809334026091A7
:1006D000340270913502693171050CF4BACF089576
:1006E0000E94CD030E9420030E940103FDCF1F92B0
:1006F0000F920FB60F9211242F933F938F939F93D6
:10070000AF93BF9380915E0290915F02A0916002CF
:10071000B0916102309162020196A11DB11D232F9B
:100720002D5F2D3720F02D570196A11DB11D20936F
:10073000620280935E0290935F02A0936002B09386
:10074000610280915A0290915B02A0915C02B0918B
:100750005D020196A11DB11D80935A0290935B0228
:10076000A0935C02B0935D02BF91AF919F918F9176
:100770003F912F910F900FBE0F901F9018958FB73C
:10078000F89420915E0230915F0240916002509196
:1007900061028FBFB901CA010895789484B582605F
:1007A00084BD84B5816084BD85B5826085BD85B515
:1007B000816085BDEEE6F0E0808181608083E1E8C4
:1007C000F0E0808182608083808181608083E0E8C6
:1007D000F0E0808181608083E1EBF0E080818460E3
:1007E0008083E0EBF0E0808181608083EAE7F0E0E5
:1007F0008081846080838081826080838081816049
:1008000080838081806880831092C100089597FB67
:10081000092E07260AD077FD04D00CD006D0002080
:100820001AF4709561957F4F0895F6F7909581952C
:100830009F4F0895AA1BBB1B51E107C0AA1FBB1FF6
:10084000A617B70710F0A61BB70B881F991F5A955C
:10085000A9F780959095BC01CD010895EE0FFF1F7B
:0C0860000590F491E02D0994F894FFCF6E
:10086C002000670200000004000000060000001CCD
:10087C00000000380000007C000000FF0100C0FFF9
:10088C000700E0FF0F0070FE1C00F8383E00F8383F
:10089C003E00FCFF7F00FCEF7F00FCC77F00FCFFED
:1008AC007F00FCFF7F0038FF3900784A3C00F800DD
:1008BC003E00F0331F00E0FF0F00C0FF030000FEFE
:1008CC000100000000000000000000040000000611
:1008DC000000001C000000380000007C000000FF3D
:1008EC000100C0FF0700E0FF0F0070FE1C00F8388D
:1008FC003E00F8383E00FCFF7F00FCEF7F00FCC799
:10090C007F00FCFF7F003CFF7900384A38007800FC
:10091C003C00F8003C00F0011F00E0B30F00C0FFEA
:10092C00030000FE010000000000000000000000B9
:10093C0000000000000080FF0100C0FF0300E0FF8A
:10094C000700F0FF0F00F8F31900F8E11000FC703D
:10095C001800FC781C00FC781C00FC701800FCE1F2
:10096C001000FCFF1F00FCFF1F00FCFF1F00FCFF22
:10097C001F00FCFF1F00FCFF1F007C7F1F003C3E84
:10098C001E001C1C1C0000000000000000000000E9
:04099C000000010056
:00000001FF
